:020000020000FC
:040000006AC00000D2
:10005C000C9430000F930FB70F93DF93CF939F93B4
:10006C008F93C2E0D2E0899198810196883E99F4F1
:10007C00933089F401E0C026C0922101C2E0D2E0A5
:10008C00002709930883C0E0D2E0899198810196FA
:10009C0098838A9302C098838A938F919F91CF9172
:1000AC00DF910F910FBF0F9118950F93C0E0D2E025
:1000BC00002709930883C2E0D2E000270993088344
:1000CC0001E000936E000F91089500E004BD03E081
:1000DC0005BD08E000930A010027009329010AE4FA
:1000EC000093280101E8009320017894DEDFFFCF14
:00000001FF
