:020000020000FC
:0400000069C00000D3
:10005C000C9430000F930FB70F93DF93CF939F93B4
:10006C008F93C2E0D2E0899198810196883E99F4F1
:10007C00933089F401E8202720932001C2E0D2E0DC
:10008C00002709930883C0E0D2E0899198810196FA
:10009C0098838A9302C098838A938F919F91CF9172
:1000AC00DF910F910FBF0F9118950F93C0E0D2E025
:1000BC00002709930883C2E0D2E000270993088344
:1000CC0020E078940F910895002704BD03E005BD4E
:1000DC0001E000936E0008E000930A0101E0009338
:1000EC0021010027009329010AE400932801DDDF98
:0200FC00FFCF34
:00000001FF
