:020000020000FC
:0C0000005BC000000C9431020C948702DD
:04005C000C94E0061A
:04008C000C94ED02E1
:1000B4000C94C102D2E0C2E18827992789939993CD
:1000C40083E6888322968C2F9D2F08968993999393
:1000D40092E084E189939883DDD6002704BD03E090
:1000E40005BD78940027009329010AE400932801B0
:1000F40009E00093210101E80093200194D29FD3E9
:1001040034D1552400EF07B90FE004B90FEF602E86
:100114007724222402E0A02E0AE0B02E08E0C02EAC
:10012400B8D03324882400E00093900000E00093CA
:10013400910050927100F2E0E9E050827894D3D0BB
:10014400482E5092910050927100F2E0E9E0008153
:10015400051531F0508233940FEF602E77248824F4
:10016400251439F403E0401621F423949CD4B9D324
:1001740085C02514E1F0351479F007E0401661F4E8
:1001840088243A94F2E0EAE0E30DF51D508243D569
:100194000FEF602E772472C00BE0401649F48824D8
:1001A400332477D080D49DD30FEF602E772466C09C
:1001B4000FE0401619F5F2D042D3F2E0E2E10081FB
:1001C400013069F4F2E0E0E000E0008300916900AE
:1001D4000C7F0260009369000DB301600DBB71D602
:1001E400882402E0A02E0AE0B02E08E0C02E51D0F0
:1001F40033240FEF602E7724222440C003E04016FE
:1002040009F43CC00BE00395401608F037C04514D0
:1002140009F434C008E0301650F6882483945092D0
:10022400950050929400751419F4642C739426C0AC
:10023400641499F473940AE0401631F405E07016DE
:1002440019F47724739408C00AE0401629F004E0F6
:10025400701611F47724739411C008E0301670F40A
:10026400F2E0EAE0E30DF51DA62CB72C21D0808343
:10027400382F2ED53394642C77247394851431F05D
:1002840004E00093910001E0009371000DB305B9FF
:1002940056CFEF93FF931F93FA2DEB2D1C2D1515BD
:1002A40019F051921A95FBCF1F91FF91EF91089588
:1002B400EF93FF930F931F93FFE0EAE0EA0DF51D20
:1002C40004910A950A95BA94102F110F010F0B0D82
:1002D400FFE0EAE1E00FF51D0491802F1F910F91DB
:1002E400FF91EF9108950F932F923F924F925F9257
:1002F4001F932F93EF93FF9304E0402E22242FE7C4
:10030400241414F02FE7222428B90FEF0A95F1F7EB
:1003140006B10F700F3099F0502E332418E0052DDC
:10032400012349F4EFEFFFEF0000E150F040E1F763
:1003340006B1012341F016953394341481F72695C0
:1003440020682394DDCF330C330C032D020D802F52
:1003540006B10123E9F3FF91EF912F911F915F9073
:100364004F903F902F900F910895CF93DF930F9369
:100374001F93D2E0CAE008E010E019930A95003018
:10038400E1F71F910F91FF91EF910895CF93DF93C0
:10039400D2E0C2E189919881DF91CF91CF93DF932D
:1003A400EF93FF93AF93BF93D2E0C8E1A991B881D3
:1003B400FD011A96B883AA93ED01CD01A191B081F4
:1003C4001196A993B993F2E0EAE0A8E0B191B99348
:1003D400AA95A030D9F7C9DFD2E0C2E1A991B881CA
:1003E4001196B883AA93BF91AF91FF91EF91DF91DA
:1003F400CF910895DF93CF939F938F93BF93AF9340
:10040400D2E0C2E1A991B8811197B883AA93D2E04E
:10041400C6E189919881A03069F4B03059F4D2E0F2
:10042400C6E1DE011896A993B993B2E0A4E1A993B9
:10043400B88307C0D2E0C6E1A991B8811A96B883FF
:10044400AA93EC01AAE0B0E0B993AA95A030E1F731
:10045400AF91BF918F919F91CF91DF910895EF93C9
:10046400FF930F931F932F935F921FB75524F2E0CE
:10047400E0E020812030D1F40DD5E2D4F2E0E1E0D7
:10048400508200916900037F086000936900009125
:1004940069000C7F02600DB302600DBB0DB30160F7
:1004A4000DBBF2E0E0E021E0208326C02130B1F46E
:1004B4005092A5005092A40004E00093A10001E032
:1004C40000937200009169000C7F0360009369003F
:1004D40022E02083F2E0E2E050820EC0223061F498
:1004E4005092A10050927200009169000C7F02604A
:1004F4000093690021E0208325B91FBF5F902F91ED
:100504001F910F91FF91EF911895EF93FF930F9324
:100514001F932F935F921FB75524F2E0E1E02081EF
:100524002030B9F45092A5005092A40004E0009346
:10053400A10001E00093720000916900037F0C6048
:100544000093690023952083F2E0E2E001E0008358
:100554000DC0213059F45092A100509272000091C4
:100564006900037F086000936900508225B91FBFAA
:100574005F902F911F910F91FF91EF911895EF9339
:10058400FF930F931F935F922F931FB75524F2E0AD
:10059400E2E02081203009F404C0213011F47AD43F
:1005A40064D428DF4CD18DD4F2E0E2E10081003044
:1005B40019F40DB30E7F0DBB0DB30D7F0DBB50921F
:1005C400A100509272001FBF2F915F901F910F9155
:1005D400FF91EF911895EF93FF93AF92BF928F9392
:1005E4003F930F935F920FB70F935524509291004E
:1005F40050927100F2E0EAE0E30DF51DA62CB72C51
:1006040057DE8083382F64D3F2E0E9E001E0008311
:100614000F910FBF5F900F913F918F91BF90AF905B
:10062400FF91EF9118950F931F932F933F93CF93BF
:10063400DF93CDB7DEB721971FEF10BB11B9112798
:1006440011BB12B928E93AE313E01A950000E9F75F
:1006540021503040C9F708E301BB179815980000F2
:10066400169A000000000000169800000000000028
:1006740024E030E113E01A950000E9F721503040FE
:10068400C9F701BB179815980000169A00000000DE
:100694000000169800000000000024E630E013E09B
:1006A4001A950000E9F721503040C9F701BB1798AB
:1006B40015980000169A000000000000169800002B
:1006C4000000000001BB179815980000169A00005E
:1006D400000000001698000000000000112710BB65
:1006E4001798159A0000169A0000000000001FB128
:1006F400169817FDF7CF0000000000001798159812
:100704001FEF10BB00000000000008E001BB1798B9
:1007140015980000169A00000000000016980000CA
:1007240000000000112710BB1798159A0000169AB4
:100734000000000000001FB1169817FDF7CF00005D
:1007440000000000179815981FEF10BB0000000070
:10075400000001E001BB179815980000169A0000EC
:10076400000000001698000000000000112710BBD4
:100774001798159A0000169A0000000000001FB197
:10078400169817FDF7CF0000000000001798159881
:100794001FEF10BB00000000000006E001BB17982B
:1007A40015980000169A000000000000169800003A
:1007B40000000000112710BB1798159A0000169A24
:1007C4000000000000001FB1169817FDF7CF0000CD
:1007D40000000000179815981FEF10BB00000000E0
:1007E40000000EE001BB179815980000169A00004F
:1007F400000000001698000000000000112710BB44
:100804001798159A0000169A0000000000001FB106
:10081400169817FDF7CF00000000000017981598F0
:100824001FEF10BB0000000000002196DEBFCDBF0B
:10083400DF91CF913F912F911F910F9108950F93C5
:100844001F932F933F93CF93DF93CDB7DEB72197B9
:10085400119A01E001BB179815980000169A000040
:10086400000000001698000000000000112710BBD3
:100874001798159A0000169A0000000000001FB196
:10088400169817FDF7CF0000000000001798159880
:100894001FEF10BB0000000000003EE419D235E653
:1008A40017D238E715D234E713D230E211D230E54B
:1008B4000FD231E60DD234E70BD239E609D235E650
:1008C40007D23EE605D234E703D23AE301D22196B9
:1008D400DEBFCDBFDF91CF913F912F911F910F913B
:1008E40008950F931F932F933F93CF93DF93CDB727
:1008F400DEB7219700EC01BB179815980000169AF3
:1009040000000000000016980000000000001127FD
:1009140010BB1798159A0000169A000000000000FA
:100924001FB1169817FDF7CF0000000000001798BC
:1009340015981FEF10BB0000000000002196DEBFD9
:10094400CDBFDF91CF913F912F911F910F910895CA
:100954000F931F932F933F93CF93DF93CDB7DEB7BE
:1009640021970FEC01BB179815980000169A000008
:10097400000000001698000000000000112710BBC2
:100984001798159A0000169A0000000000001FB185
:10099400169817FDF7CF000000000000179815986F
:1009A4001FEF10BB00000000000006E001BB179819
:1009B40015980000169A0000000000001698000028
:1009C40000000000112710BB1798159A0000169A12
:1009D4000000000000001FB1169817FDF7CF0000BB
:1009E40000000000179815981FEF10BB00000000CE
:1009F40000003A3008F44BC000E101BB1798159889
:100A04000000169A00000000000016980000000084
:100A14000000112710BB1798159A0000169A0000C1
:100A2400000000001FB1169817FDF7CF000000006A
:100A34000000179815981FEF10BB0000000000007D
:100A4400343608F424C000E101BB1798159800005F
:100A5400169A000000000000169800000000000034
:100A6400112710BB1798159A0000169A0000000071
:100A740000001FB1169817FDF7CF0000000000001A
:100A8400179815981FEF10BB000000000000832F7B
:100A940051D12196DEBFCDBFDF91CF913F912F91F0
:100AA4001F910F9108950F931F932F933F93CF930B
:100AB400DF93CDB7DEB72197119801E001BB1798FA
:100AC40015980000169A0000000000001698000017
:100AD40000000000112710BB1798159A0000169A01
:100AE4000000000000001FB1169817FDF7CF0000AA
:100AF40000000000179815981FEF10BB00000000BD
:100B0400000035E4E5D03EE6E3D034E7E1D035E655
:100B1400DFD032E7DDD030E2DBD03EE4D9D031E6BD
:100B2400D7D03DE6D5D035E6D3D03AE3D1D021961F
:100B3400DEBFCDBFDF91CF913F912F911F910F91D8
:100B440008950F931F932F933F938F93CF93DF9326
:100B5400CDB7DEB7219701E001BB179815980000C7
:100B6400169A000000000000169800000000000023
:100B7400112710BB1798159A0000169A0000000060
:100B840000001FB1169817FDF7CF00000000000009
:100B9400179815981FEF10BB000000000000832F6A
:100BA40039E596D03FE694D035E792D030E290D044
:100BB40031E68ED032E78CD035E68AD030E288D068
:100BC40030E786D031E684D034E782D039E680D06D
:100BD40035E67ED03EE67CD034E77AD082DE3EE64F
:100BE40077D035E775D03DE673D032E671D035E67F
:100BF4006FD032E76DD03AE36BD030E269D09AD04F
:100C04002196DEBFCDBFDF91CF918F913F912F9180
:100C14001F910F9108950F931F932F933F93CF9399
:100C2400DF93CDB7DEB7219700E101BB1798159884
:100C34000000169A00000000000016980000000052
:100C44000000112710BB1798159A0000169A00008F
:100C5400000000001FB1169817FDF7CF0000000038
:100C64000000179815981FEF10BB0000000000004B
:100C740030E22ED000E101BB179815980000169AB7
:100C8400000000000000169800000000000011277A
:100C940010BB1798159A0000169A00000000000077
:100CA4001FB1169817FDF7CF000000000000179839
:100CB40015981FEF10BB0000000000002196DEBF56
:100CC400CDBFDF91CF913F912F911F910F91089547
:100CD4000F931F93CF93DF93CDB7DEB7219731BB2B
:100CE400179A15980000169A000000000000169844
:100CF400000000000000112710BB1798159A00008F
:100D0400169A0000000000001FB1169817FDF7CFD7
:100D1400000000000000179815981FEF10BB00009A
:100D2400000000002196DEBFCDBFDF91CF911F915F
:100D34000F9108953F937F938F939F93AF93BF93A6
:100D4400CF93DF93CDB7DEB7219770E3A82F94E656
:100D5400BB27A91718F0A91BB395FBCF00003B2FA5
:100D6400303009F40EC0370FB3DF9AE0BB27A91760
:100D740018F0A91BB395FBCF00003B2F370FA8DF5A
:100D84000EC09AE0BB27A91718F0A91BB395FBCF97
:100D94000000B03021F03B2F370F9ADF00C03A2F0C
:100DA400370F96DF2196DEBFCDBFDF91CF91BF9184
:100DB400AF919F918F917F913F9108950F930FB7BA
:100DC4000F93DF93CF939F938F933F93C3E0D2E02E
:100DD400899198810196883E41F5933031F5C3E0BD
:100DE400D2E0002709930883C5E0D2E08991988175
:100DF400019698838A93382FD2E0C7E088818130A6
:100E040011F0823051F0D2E0C8E00881301759F077
:100E140008E0402740930A010AC0D2E0C8E00881F4
:100E2400301709F004C036D002C098838A933F91EA
:100E34008F919F91CF91DF910F910FBF0F911895D3
:100E4400DF93CF930F93D2E0C7E001E00883D2E0B1
:100E5400C8E00AE0088301E000936E0008E0009314
:100E64000A010F91CF91DF910895DF93CF930F93F0
:100E7400D2E0C7E002E00883D2E0C8E003E00883E0
:100E840001E000936E0008E000930A010F91CF91F6
:100E9400DF910895DF93CF930F93002700936E00A3
:100EA400D2E0C7E000270883C3E0D2E0002709931B
:100EB4000883002700930A0144270F91CF91DF9103
:100EC4000895CF93DF93EF93FF930F933F939F93F3
:100ED4008F93F2E0E6E181919081EC01399138DD64
:100EE40000DD219608E03991303021F0F1DE0A95D9
:100EF4000030C9F78F919F913F910F91FF91EF912E
:100F0400DF91CF91089501020341040506420708C9
:100F140009432A0023446162636465666768696AF9
:100F24006B6C6D6E6F7072737475767778797A0006
:00000001FF
