:020000020000FC
:10000000B1D0552400EF07B90FE004B90FEF602E0F
:10001000772422243324B2D1482E251429F403E076
:10002000401611F4239481C0251449F1351441F090
:1000300007E0401629F43A940FEF602E772475C03C
:100040000BE0401629F433240FEF602E77246DC0A7
:100050000FE0401689F4F2E0E0E0E30DF51DA62C78
:10006000B72C65D0819300E0008333240FEF602E1E
:1000700077245BC0222459C003E0401609F455C020
:100080000BE00395401608F050C0451409F44DC02C
:10009000751419F4642C739448C0641499F473941F
:1000A0000AE0401631F405E0701619F477247394D1
:1000B00008C00AE0401629F004E0701611F4772415
:1000C000739433C008E0301680F5F2E0E0E0E30D11
:1000D000F51DA62CB72C2BD08083B82FB1BB20E800
:1000E00022B90000169A00000000000016980000D7
:1000F00000000000222710BB20E222B90000169A5F
:100100000000000000002FB1169827FDF7CF000077
:1001100000000000222722B92FEF20BB00000000C2
:1001200000003394642C7724739435B874CFEF9324
:10013000FF930F931F93F4E0E0E0EA0DF51D0491A7
:100140000A950A95BA94102F110F010F0B0DF4E0C8
:10015000E0E1E00FF51D0491802F1F910F91FF91B9
:10016000EF9108950F931F932F933F93CF93DF93B6
:10017000CDB7DEB721971FEF10BB11B9112711BB07
:1001800012B928E93AE313E01A950000E9F7215083
:100190003040C9F708E301BB222722B90000169AB4
:1001A000000000000000169800000000000024E09D
:1001B00030E113E01A950000E9F721503040C9F70B
:1001C00001BB222722B90000169A0000000000009F
:1001D000169800000000000024E630E013E01A95B5
:1001E0000000E9F721503040C9F701BB222722B9AE
:1001F0000000169A000000000000169800000000A1
:10020000000001BB222722B90000169A000000005E
:1002100000001698000000000000222710BB20E21A
:1002200022B90000169A0000000000002FB11698B5
:1002300027FDF7CF000000000000222722B92FEF92
:1002400020BB00000000000008E001BB222722B90B
:100250000000169A00000000000016980000000040
:100260000000222710BB20E222B90000169A0000ED
:10027000000000002FB1169827FDF7CF0000000006
:100280000000222722B92FEF20BB00000000000051
:1002900001E001BB222722B90000169A00000000ED
:1002A00000001698000000000000222710BB20E28A
:1002B00022B90000169A0000000000002FB1169825
:1002C00027FDF7CF000000000000222722B92FEF02
:1002D00020BB00000000000006E001BB222722B97D
:1002E0000000169A000000000000169800000000B0
:1002F0000000222710BB20E222B90000169A00005D
:10030000000000002FB1169827FDF7CF0000000075
:100310000000222722B92FEF20BB000000000000C0
:100320000FE001BB222722B90000169A000000004E
:1003300000001698000000000000222710BB20E2F9
:1003400022B90000169A0000000000002FB1169894
:1003500027FDF7CF000000000000222722B92FEF71
:1003600020BB0000000000002196DEBFCDBFDF9162
:10037000CF913F912F911F910F9108950F932F923D
:100380003F924F925F921F932F93EF93FF9304E05E
:10039000402E22242FE7241414F02FE7222428B91A
:1003A0000FEF0A95F1F706B10F700F3099F0502E4C
:1003B000332418E0052D012349F4EFEFFFEF00008F
:1003C000E150F040E1F706B1012341F01695339476
:1003D000341481F7269520682394DDCF330C330C39
:1003E000032D020D802F06B10123E9F3FF91EF9158
:1003F0002F911F915F904F903F902F900F910895F4
:100400000102034104050642070809432A00234468
:100410006162636465666768696A6B6C6D6E6F7054
:0A04200072737475767778797A00AC
:00000001FF
