:020000020000FC
:100000002BD000EF07B90FE004B932D1B82F24D0BC
:10001000B1BB20E822B90000169A000000000000E1
:100020001698000000000000222710BB20E222B931
:100030000000169A0000000000002FB1169827FD5E
:10004000F7CF000000000000222722B92FEF20BBCD
:10005000000000000000D9CF0F931F932F933F9310
:10006000CF93DF93CDB7DEB721971FEF10BB11B948
:10007000112711BB12B928E93AE313E01A950000E1
:10008000E9F721503040C9F708E301BB222722B924
:100090000000169A00000000000016980000000002
:1000A000000024E030E113E01A950000E9F7215048
:1000B0003040C9F701BB222722B90000169A000080
:1000C00000000000169800000000000024E630E068
:1000D00013E01A950000E9F721503040C9F701BB41
:1000E000222722B90000169A00000000000016988E
:1000F00000000000000001BB222722B90000169A70
:1001000000000000000016980000000000002227F8
:1001100010BB20E222B90000169A00000000000087
:100120002FB1169827FDF7CF00000000000022270E
:1001300022B92FEF20BB00000000000008E001BB47
:10014000222722B90000169A00000000000016982D
:10015000000000000000222710BB20E222B90000AE
:10016000169A0000000000002FB1169827FDF7CF67
:10017000000000000000222722B92FEF20BB000062
:100180000000000001E001BB222722B90000169AFE
:100190000000000000001698000000000000222768
:1001A00010BB20E222B90000169A000000000000F7
:1001B0002FB1169827FDF7CF00000000000022277E
:1001C00022B92FEF20BB00000000000006E001BBB9
:1001D000222722B90000169A00000000000016989D
:1001E000000000000000222710BB20E222B900001E
:1001F000169A0000000000002FB1169827FDF7CFD7
:10020000000000000000222722B92FEF20BB0000D1
:10021000000000000FE001BB222722B90000169A5F
:1002200000000000000016980000000000002227D7
:1002300010BB20E222B90000169A00000000000066
:100240002FB1169827FDF7CF0000000000002227ED
:1002500022B92FEF20BB0000000000002196DEBF76
:10026000CDBFDF91CF913F912F911F910F910895B5
:100270000F932F923F924F925F921F932F93EF9382
:10028000FF9304E0402E22242FE7241414F02FE7DC
:10029000222428B90FEF0A95F1F706B10F700F303D
:1002A00099F0502E332418E0052D012349F4EFEF87
:1002B000FFEF0000E150F040E1F706B1012341F00B
:1002C00016953394341481F7269520682394DDCF56
:1002D000330C330C032D020DF3E0E0E14424E00F76
:1002E000F41D0491802F06B10123E9F3FF91EF91F2
:1002F0002F911F915F904F903F902F900F910895F5
:100300000102034104050642070809432A00234469
:100310003132334134353642373839432A30234479
:00000001FF
