:020000020000FC
:10000000D2E0C0E1882799278993999383E6888372
:1000100022968C2F9D2F08968993999392E082E1E6
:1000200089939883EFD0552400EF07B90FE004B906
:100030000FEF602E7724222402E0A02E00E0B02EE5
:1000400008E0C02EB5D03324E9D1482E251429F478
:1000500003E0401611F42394A9C0251489F0351447
:1000600041F007E0401629F43A940FEF602E772410
:100070009DC00BE0401629F433240FEF602E772447
:1000800095C00FE04016C9F5F2E0E0E0E30DF51D84
:10009000A62CB72C9CD08083B82FB1BB20E822B906
:1000A0000000169A000000000000169800000000F2
:1000B0000000222710BB20E222B90000169A00009F
:1000C000000000002FB1169827FDF7CF00000000B8
:1000D0000000222722B92FEF20BB00000000000003
:1000E00002E0A02E00E0B02E08E0C02E61D0332444
:1000F0000FEF602E7724222459C003E0401609F444
:1001000055C00BE00395401608F050C0451409F4A3
:100110004DC0751419F4642C739448C0641499F498
:1001200073940AE0401631F405E0701619F4772450
:10013000739408C00AE0401629F004E0701611F428
:100140007724739433C007E0301680F5F2E0E0E0E6
:10015000E30DF51DA62CB72C3AD08083B82FB1BB88
:1001600020E822B90000169A00000000000016984E
:10017000000000000000222710BB20E222B900008E
:10018000169A0000000000002FB1169827FDF7CF47
:10019000000000000000222722B92FEF20BB000042
:1001A000000000003394642C7724739435B84CCF4E
:1001B000EF93FF931F93FA2DEB2D1C2D151519F0BE
:1001C00051921A95FBCF1F91FF91EF910895EF93F4
:1001D000FF930F931F93F5E0E4E8EA0DF51D0491FA
:1001E0000A950A95BA94102F110F010F0B0DF5E027
:1001F000E4E9E00FF51D0491802F1F910F91FF910D
:10020000EF9108950F931F932F933F93CF93DF9315
:10021000CDB7DEB721971FEF10BB11B9112711BB66
:1002200012B928E93AE313E01A950000E9F72150E2
:100230003040C9F708E301BB222722B90000169A13
:10024000000000000000169800000000000024E0FC
:1002500030E113E01A950000E9F721503040C9F76A
:1002600001BB222722B90000169A000000000000FE
:10027000169800000000000024E630E013E01A9514
:100280000000E9F721503040C9F701BB222722B90D
:100290000000169A00000000000016980000000000
:1002A000000001BB222722B90000169A00000000BE
:1002B00000001698000000000000222710BB20E27A
:1002C00022B90000169A0000000000002FB1169815
:1002D00027FDF7CF000000000000222722B92FEFF2
:1002E00020BB00000000000008E001BB222722B96B
:1002F0000000169A000000000000169800000000A0
:100300000000222710BB20E222B90000169A00004C
:10031000000000002FB1169827FDF7CF0000000065
:100320000000222722B92FEF20BB000000000000B0
:1003300001E001BB222722B90000169A000000004C
:1003400000001698000000000000222710BB20E2E9
:1003500022B90000169A0000000000002FB1169884
:1003600027FDF7CF000000000000222722B92FEF61
:1003700020BB00000000000006E001BB222722B9DC
:100380000000169A0000000000001698000000000F
:100390000000222710BB20E222B90000169A0000BC
:1003A000000000002FB1169827FDF7CF00000000D5
:1003B0000000222722B92FEF20BB00000000000020
:1003C0000FE001BB222722B90000169A00000000AE
:1003D00000001698000000000000222710BB20E259
:1003E00022B90000169A0000000000002FB11698F4
:1003F00027FDF7CF000000000000222722B92FEFD1
:1004000020BB0000000000002196DEBFCDBFDF91C1
:10041000CF913F912F911F910F9108950F932F929C
:100420003F924F925F921F932F93EF93FF9304E0BD
:10043000402E22242FE7241414F02FE7222428B979
:100440000FEF0A95F1F706B10F700F3099F0502EAB
:10045000332418E0052D012349F4EFEFFFEF0000EE
:10046000E150F040E1F706B1012341F016953394D5
:10047000341481F7269520682394DDCF330C330C98
:10048000032D020D802F06B10123E9F3FF91EF91B7
:100490002F911F915F904F903F902F900F91089553
:1004A000CF93DF930F931F93D2E0C8E008E010E0F2
:1004B00019930A950030E1F71F910F91FF91EF9189
:1004C0000895CF93DF93EF93FF93AF93BF93D2E061
:1004D000C6E1A991B881FD011A96B883AA93ED01EE
:1004E000CD01A191B0811196A993B993F2E0E8E012
:1004F000A8E0B191B993AA95A030D9F7D1DFD2E0A5
:10050000C0E1A991B8811196B883AA93BF91AF9128
:10051000FF91EF91DF91CF910895DF93CF939F9358
:100520008F93BF93AF93D2E0C0E1A991B8811197A7
:10053000B883AA93D2E0C4E189919881A03069F48C
:10054000B03059F4D2E0C4E1DE011896A993B99312
:10055000B2E0A2E1A993B88307C0D2E0C4E1A991B7
:10056000B8811A96B883AA93EC01AAE0B0E0B993D7
:10057000AA95A030E1F7AF91BF918F919F91CF9154
:10058000DF9108950102034104050642070809436B
:100590002A0023446162636465666768696A6B6CFC
:0E05A0006D6E6F7072737475767778797A006D
:00000001FF
