:020000020000FC
:0C00000047C000000C9401000C940200AA
:10008C000C940102D2E0C0E18827992789939993B7
:10009C0083E6888322968C2F9D2F089689939993BB
:1000AC0092E082E189939883CED1D9D2552400EF86
:1000BC0007B90FE004B90FEF602E7724222402E079
:1000CC00A02E00E0B02E08E0C02EAED03324882441
:1000DC0000E00093900000E00093910050927100BA
:1000EC00F2E0E8E1508202E008600093690005B993
:1000FC000DB3016002600DBB7894C1D0482E5092B4
:10010C00910050927100F2E0E8E10081051531F0A8
:10011C00508233940FEF602E77248824251439F401
:10012C0003E0401621F42394CED3EBD273C02514F4
:10013C00E1F0351479F007E0401661F488243A9424
:10014C00F2E0E0E0E30DF51D508275D40FEF602E68
:10015C00772460C00BE0401649F48824332464D023
:10016C00B2D3CFD20FEF602E772454C00FE04016DD
:10017C0089F4E0D074D2882402E0A02E00E0B02EE6
:10018C0008E0C02E51D033240FEF602E77242224A8
:10019C0066D240C003E0401609F43CC00BE0039566
:1001AC00401608F037C0451409F434C008E0301686
:1001BC00E0F6882483945092950050929400751424
:1001CC0019F4642C739426C0641499F473940AE0A3
:1001DC00401631F405E0701619F47724739408C0B6
:1001EC000AE0401629F004E0701611F47724739499
:1001FC0011C008E0301670F4F2E0E0E0E30DF51DFC
:10020C00A62CB72C21D08083382F72D43394642C35
:10021C0077247394851431F004E00093910001E08D
:10022C000093710085B869CFEF93FF931F93FA2D5C
:10023C00EB2D1C2D08D1151519F051921A95FBCFE9
:10024C001F91FF91EF910895EF93FF930F931F93DD
:10025C00FBE0E8EEEA0DF51D04910A950A95BA94B7
:10026C00102F110F010F0B0DFBE0E8EFE00FF51D48
:10027C000491802F1F910F91FF91EF9108950F938F
:10028C002F923F924F925F921F932F93EF93FF9376
:10029C0004E0402E22242FE7241414F02FE722240C
:1002AC0028B90FEF0A95F1F706B10F700F3099F0DE
:1002BC00502E332418E0052D012349F4EFEFFFEF06
:1002CC000000E150F040E1F706B1012341F0169532
:1002DC003394341481F7269520682394DDCF330CA6
:1002EC00330C032D020D802F06B10123E9F3FF918E
:1002FC00EF912F911F915F904F903F902F900F9106
:10030C000895CF93DF930F931F93D2E0C8E008E0DA
:10031C0010E019930A950030E1F71F910F91FF91AE
:10032C00EF910895CF93DF93D2E0C0E1899198814A
:10033C00DF91CF91CF93DF93EF93FF93AF93BF9365
:10034C00D2E0C6E1A991B881FD011A96B883AA93AF
:10035C00ED01CD01A191B0811196A993B993F2E071
:10036C00E8E0A8E0B191B993AA95A030D9F7C9DF1C
:10037C00D2E0C0E1A991B8811196B883AA93BF913C
:10038C00AF91FF91EF91DF91CF910895DF93CF93D0
:10039C009F938F93BF93AF93D2E0C0E1A991B881A3
:1003AC001197B883AA93D2E0C4E189919881A030C7
:1003BC0069F4B03059F4D2E0C4E1DE011896A99387
:1003CC00B993B2E0A2E1A993B88307C0D2E0C4E12B
:1003DC00A991B8811A96B883AA93EC01AAE0B0E06F
:1003EC00B993AA95A030E1F7AF91BF918F919F91EE
:1003FC00CF91DF910895EF93FF93AF92BF928F93BC
:10040C003F930F935F920FB70F9355245092910027
:10041C0050927100F2E0E0E0E30DF51DA62CB72C34
:10042C0013DF8083382F64D3F2E0E8E101E000832E
:10043C000F910FBF5F900F913F918F91BF90AF9035
:10044C00FF91EF9118950F931F932F933F93CF9399
:10045C00DF93CDB7DEB721971FEF10BB11B9112772
:10046C0011BB12B928E93AE313E01A950000E9F739
:10047C0021503040C9F708E301BB179815980000CC
:10048C00169A000000000000169800000000000002
:10049C0024E030E113E01A950000E9F721503040D8
:1004AC00C9F701BB179815980000169A00000000B8
:1004BC000000169800000000000024E630E013E075
:1004CC001A950000E9F721503040C9F701BB179885
:1004DC0015980000169A0000000000001698000005
:1004EC000000000001BB179815980000169A000038
:1004FC00000000001698000000000000112710BB3F
:10050C001798159A0000169A0000000000001FB101
:10051C00169817FDF7CF00000000000017981598EB
:10052C001FEF10BB00000000000008E001BB179893
:10053C0015980000169A00000000000016980000A4
:10054C0000000000112710BB1798159A0000169A8E
:10055C000000000000001FB1169817FDF7CF000037
:10056C0000000000179815981FEF10BB000000004A
:10057C00000001E001BB179815980000169A0000C6
:10058C00000000001698000000000000112710BBAE
:10059C001798159A0000169A0000000000001FB171
:1005AC00169817FDF7CF000000000000179815985B
:1005BC001FEF10BB00000000000006E001BB179805
:1005CC0015980000169A0000000000001698000014
:1005DC0000000000112710BB1798159A0000169AFE
:1005EC000000000000001FB1169817FDF7CF0000A7
:1005FC0000000000179815981FEF10BB00000000BA
:10060C0000000EE001BB179815980000169A000028
:10061C00000000001698000000000000112710BB1D
:10062C001798159A0000169A0000000000001FB1E0
:10063C00169817FDF7CF00000000000017981598CA
:10064C001FEF10BB0000000000002196DEBFCDBFE5
:10065C00DF91CF913F912F911F910F9108950F939F
:10066C001F932F933F93CF93DF93CDB7DEB7219793
:10067C00119A01E001BB179815980000169A00001A
:10068C00000000001698000000000000112710BBAD
:10069C001798159A0000169A0000000000001FB170
:1006AC00169817FDF7CF000000000000179815985A
:1006BC001FEF10BB0000000000003EE419D235E62D
:1006CC0017D238E715D234E713D230E211D230E525
:1006DC000FD231E60DD234E70BD239E609D235E62A
:1006EC0007D23EE605D234E703D23AE301D2219693
:1006FC00DEBFCDBFDF91CF913F912F911F910F9115
:10070C0008950F931F932F933F93CF93DF93CDB700
:10071C00DEB7219700EC01BB179815980000169ACC
:10072C0000000000000016980000000000001127D7
:10073C0010BB1798159A0000169A000000000000D4
:10074C001FB1169817FDF7CF000000000000179896
:10075C0015981FEF10BB0000000000002196DEBFB3
:10076C00CDBFDF91CF913F912F911F910F910895A4
:10077C000F931F932F933F93CF93DF93CDB7DEB798
:10078C0021970FEC01BB179815980000169A0000E2
:10079C00000000001698000000000000112710BB9C
:1007AC001798159A0000169A0000000000001FB15F
:1007BC00169817FDF7CF0000000000001798159849
:1007CC001FEF10BB00000000000006E001BB1798F3
:1007DC0015980000169A0000000000001698000002
:1007EC0000000000112710BB1798159A0000169AEC
:1007FC000000000000001FB1169817FDF7CF000095
:10080C0000000000179815981FEF10BB00000000A7
:10081C0000003A3008F44BC000E101BB1798159862
:10082C000000169A0000000000001698000000005E
:10083C000000112710BB1798159A0000169A00009B
:10084C00000000001FB1169817FDF7CF0000000044
:10085C000000179815981FEF10BB00000000000057
:10086C00343608F424C000E101BB17981598000039
:10087C00169A00000000000016980000000000000E
:10088C00112710BB1798159A0000169A000000004B
:10089C0000001FB1169817FDF7CF000000000000F4
:1008AC00179815981FEF10BB000000000000832F55
:1008BC0051D12196DEBFCDBFDF91CF913F912F91CA
:1008CC001F910F9108950F931F932F933F93CF93E5
:1008DC00DF93CDB7DEB72197119801E001BB1798D4
:1008EC0015980000169A00000000000016980000F1
:1008FC0000000000112710BB1798159A0000169ADB
:10090C000000000000001FB1169817FDF7CF000083
:10091C0000000000179815981FEF10BB0000000096
:10092C00000035E4E5D03EE6E3D034E7E1D035E62F
:10093C00DFD032E7DDD030E2DBD03EE4D9D031E697
:10094C00D7D03DE6D5D035E6D3D03AE3D1D02196F9
:10095C00DEBFCDBFDF91CF913F912F911F910F91B2
:10096C0008950F931F932F933F938F93CF93DF9300
:10097C00CDB7DEB7219701E001BB179815980000A1
:10098C00169A0000000000001698000000000000FD
:10099C00112710BB1798159A0000169A000000003A
:1009AC0000001FB1169817FDF7CF000000000000E3
:1009BC00179815981FEF10BB000000000000832F44
:1009CC0039E596D03FE694D035E792D030E290D01E
:1009DC0031E68ED032E78CD035E68AD030E288D042
:1009EC0030E786D031E684D034E782D039E680D047
:1009FC0035E67ED03EE67CD034E77AD082DE3EE629
:100A0C0077D035E775D03DE673D032E671D035E658
:100A1C006FD032E76DD03AE36BD030E269D09AD028
:100A2C002196DEBFCDBFDF91CF918F913F912F915A
:100A3C001F910F9108950F931F932F933F93CF9373
:100A4C00DF93CDB7DEB7219700E101BB179815985E
:100A5C000000169A0000000000001698000000002C
:100A6C000000112710BB1798159A0000169A000069
:100A7C00000000001FB1169817FDF7CF0000000012
:100A8C000000179815981FEF10BB00000000000025
:100A9C0030E22ED000E101BB179815980000169A91
:100AAC000000000000001698000000000000112754
:100ABC0010BB1798159A0000169A00000000000051
:100ACC001FB1169817FDF7CF000000000000179813
:100ADC0015981FEF10BB0000000000002196DEBF30
:100AEC00CDBFDF91CF913F912F911F910F91089521
:100AFC000F931F93CF93DF93CDB7DEB7219731BB05
:100B0C00179A15980000169A00000000000016981D
:100B1C00000000000000112710BB1798159A000068
:100B2C00169A0000000000001FB1169817FDF7CFB1
:100B3C00000000000000179815981FEF10BB000074
:100B4C00000000002196DEBFCDBFDF91CF911F9139
:100B5C000F9108953F937F938F939F93AF93BF9380
:100B6C00CF93DF93CDB7DEB7219770E3A82F94E630
:100B7C00BB27A91718F0A91BB395FBCF00003B2F7F
:100B8C00303009F40EC0370FB3DF9AE0BB27A9173A
:100B9C0018F0A91BB395FBCF00003B2F370FA8DF34
:100BAC000EC09AE0BB27A91718F0A91BB395FBCF71
:100BBC000000B03021F03B2F370F9ADF00C03A2FE6
:100BCC00370F96DF2196DEBFCDBFDF91CF91BF915E
:100BDC00AF919F918F917F913F91089501020341B5
:100BEC0004050642070809432A0023446162636432
:100BFC0065666768696A6B6C6D6E6F70727374751D
:060C0C00767778797A008A
:00000001FF
