:020000020000FC
:1000000035D040D191D13FE486D337E584D335E470
:1000100082D33EE480D333E6BED104E128EE3DEF47
:1000200013E01A950000E9F721503040C9F70A950E
:1000300009F401C0F3CF5AD277D13FE46CD337E54E
:100040006AD335E468D33EE466D304E128EE3DEF9D
:1000500013E01A950000E9F721503040C9F70A95DE
:1000600009F401C0F3CF33E68FD2FFCF0F931F9374
:100070002F933F93CF93DF93CDB7DEB721971FEF39
:1000800010BB11B9112711BB12B928E93AE313E0EB
:100090001A950000E9F721503040C9F708E301BB89
:1000A000179815980000169A000000000000169896
:1000B00000000000000024E030E113E01A95000089
:1000C000E9F721503040C9F701BB17981598000097
:1000D000169A0000000000001698000000000000C2
:1000E00024E630E013E01A950000E9F72150304093
:1000F000C9F701BB179815980000169A0000000078
:100100000000169800000000000001BB1798159829
:100110000000169A00000000000016980000000081
:100120000000112710BB1798159A0000169A0000BE
:10013000000000001FB1169817FDF7CF0000000067
:100140000000179815981FEF10BB0000000000007A
:1001500008E001BB179815980000169A00000000EF
:1001600000001698000000000000112710BB17982F
:10017000159A0000169A0000000000001FB11698A2
:1001800017FDF7CF000000000000179815981FEF2B
:1001900010BB00000000000001E001BB179815989B
:1001A0000000169A000000000000169800000000F1
:1001B0000000112710BB1798159A0000169A00002E
:1001C000000000001FB1169817FDF7CF00000000D7
:1001D0000000179815981FEF10BB000000000000EA
:1001E00006E001BB179815980000169A0000000061
:1001F00000001698000000000000112710BB17989F
:10020000159A0000169A0000000000001FB1169811
:1002100017FDF7CF000000000000179815981FEF9A
:1002200010BB0000000000000CE001BB17981598FF
:100230000000169A00000000000016980000000060
:100240000000112710BB1798159A0000169A00009D
:10025000000000001FB1169817FDF7CF0000000046
:100260000000179815981FEF10BB00000000000059
:100270002196DEBFCDBFDF91CF913F912F911F918E
:100280000F9108950F931F932F933F93CF93DF9375
:10029000CDB7DEB72197119A01E001BB17981598E9
:1002A0000000169A000000000000169800000000F0
:1002B0000000112710BB1798159A0000169A00002D
:1002C000000000001FB1169817FDF7CF00000000D6
:1002D0000000179815981FEF10BB000000000000E9
:1002E0003EE419D235E617D238E715D234E713D2F7
:1002F00030E211D230E50FD231E60DD234E70BD225
:1003000039E609D235E607D23EE605D234E703D214
:100310003AE301D22196DEBFCDBFDF91CF913F916D
:100320002F911F910F9108950F931F932F933F9338
:10033000CF93DF93CDB7DEB7219700EC01BB1798C1
:1003400015980000169A00000000000016980000A2
:1003500000000000112710BB1798159A0000169A8C
:100360000000000000001FB1169817FDF7CF000035
:1003700000000000179815981FEF10BB0000000048
:1003800000002196DEBFCDBFDF91CF913F912F912D
:100390001F910F9108950F931F932F933F93CF9326
:1003A000DF93CDB7DEB721970FEC01BB17981598F7
:1003B0000000169A000000000000169800000000DF
:1003C0000000112710BB1798159A0000169A00001C
:1003D000000000001FB1169817FDF7CF00000000C5
:1003E0000000179815981FEF10BB000000000000D8
:1003F00006E001BB179815980000169A000000004F
:1004000000001698000000000000112710BB17988C
:10041000159A0000169A0000000000001FB11698FF
:1004200017FDF7CF000000000000179815981FEF88
:1004300010BB0000000000003A3008F44BC000E19F
:1004400001BB179815980000169A000000000000E4
:100450001698000000000000112710BB1798159A8D
:100460000000169A0000000000001FB1169817FD4A
:10047000F7CF000000000000179815981FEF10BB81
:10048000000000000000343608F424C000E101BB85
:10049000179815980000169A0000000000001698A2
:1004A000000000000000112710BB1798159A0000EB
:1004B000169A0000000000001FB1169817FDF7CF34
:1004C000000000000000179815981FEF10BB0000F7
:1004D00000000000832F51D12196DEBFCDBFDF91F8
:1004E000CF913F912F911F910F9108950F931F93DB
:1004F0002F933F93CF93DF93CDB7DEB7219711981A
:1005000001E001BB179815980000169A0000000042
:1005100000001698000000000000112710BB17987B
:10052000159A0000169A0000000000001FB11698EE
:1005300017FDF7CF000000000000179815981FEF77
:1005400010BB00000000000035E4E5D03EE6E3D03B
:1005500034E7E1D035E6DFD032E7DDD030E2DBD082
:100560003EE4D9D031E6D7D03DE6D5D035E6D3D07C
:100570003AE3D1D02196DEBFCDBFDF91CF913F913D
:100580002F911F910F9108950F931F932F933F93D6
:100590008F93CF93DF93CDB7DEB7219701E001BBF7
:1005A000179815980000169A000000000000169891
:1005B000000000000000112710BB1798159A0000DA
:1005C000169A0000000000001FB1169817FDF7CF23
:1005D000000000000000179815981FEF10BB0000E6
:1005E00000000000832F39E596D03FE694D035E730
:1005F00092D030E290D031E68ED032E78CD035E622
:100600008AD030E288D030E786D031E684D034E733
:1006100082D039E680D035E67ED03EE67CD034E725
:100620007AD082DE3EE677D035E775D03DE673D0EE
:1006300032E671D035E66FD032E76DD03AE36BD059
:1006400030E269D09AD02196DEBFCDBFDF91CF9145
:100650008F913F912F911F910F9108950F931F93A9
:100660002F933F93CF93DF93CDB7DEB7219700E170
:1006700001BB179815980000169A000000000000B2
:100680001698000000000000112710BB1798159A5B
:100690000000169A0000000000001FB1169817FD18
:1006A000F7CF000000000000179815981FEF10BB4F
:1006B00000000000000030E22ED000E101BB1798DE
:1006C00015980000169A000000000000169800001F
:1006D00000000000112710BB1798159A0000169A09
:1006E0000000000000001FB1169817FDF7CF0000B2
:1006F00000000000179815981FEF10BB00000000C5
:1007000000002196DEBFCDBFDF91CF913F912F91A9
:100710001F910F9108950F931F93CF93DF93CDB740
:10072000DEB7219731BB179A15980000169A000082
:10073000000000001698000000000000112710BB08
:100740001798159A0000169A0000000000001FB1CB
:10075000169817FDF7CF00000000000017981598B5
:100760001FEF10BB0000000000002196DEBFCDBFD0
:10077000DF91CF911F910F9108953F937F938F93B6
:100780009F93AF93BF93CF93DF93CDB7DEB72197FE
:1007900070E3A82F94E6BB27A91718F0A91BB395FF
:1007A000FBCF00003B2F303009F40EC0370FB3DF12
:1007B0009AE0BB27A91718F0A91BB395FBCF00003F
:1007C0003B2F370FA8DF0EC09AE0BB27A91718F000
:1007D000A91BB395FBCF0000B03021F03B2F370FA2
:1007E0009ADF00C03A2F370F96DF2196DEBFCDBFCC
:1007F000DF91CF91BF91AF919F918F917F913F9169
:02080000089559
:00000001FF
